:020000020000FC
:020000003FC0FF
:1000800002E90DBF00E00EBF00EC05BF4AD05BD017
:1000900020E030E4209310023093110220E030E0A1
:1000A00020931C0230931D0224D0FF242BD0E0E0CB
:1000B000F0E428D0009306A0009301A0E3940D3053
:1000C00011F00193F6CF11D0E050F044E0931C0200
:1000D000F0931D0220E030E02093260230932702A7
:1000E00000E800BD00E00AB9B4C35F9B08950CB1FD
:1000F000FCCF00E000BD0FE209B906E800BD08E151
:100100000AB908955F9BFECF0CB108955D9BFECFA9
:100110000CB9089503E3FADF03E3F8DF03E3F6DF46
:100120000895E0E7F1E0ACE0B1E0CCEDD4E0CE1B27
:10013000DF0B00E0259135912D933D932297C01759
:10014000D007C1F7089580E690E028E734E02093D7
:1001500006023093070224E734E0209340023093F4
:1001600041022AE030E020933202309333020895B6
:1001700001037302770285025E0414012B01000063
:1001800007032D011C01110320523E022201D4025B
:10019000204052022A01CE02203E52023201E002E9
:1001A000505544033A01930220504F5244044201F7
:1001B0009D022050415753044C01B0022052455635
:1001C0004F045601A40240016001F90221016601B9
:1001D000EC02202143026C0184032040430274019D
:1001E0007C03202A32027C019003202F32028401FA
:1001F0009E0330018C01740320312D02920178039B
:100200005041575343059A01BD02444E4103A40196
:100210001B03524F5803AC012F0320524F02B4016D
:10022000250320545245564E4906BC0197033D0113
:10023000C8016C03324552454805CE0148032044AD
:100240004C4F4304D8018D024E454B4F5405E201FB
:10025000E8034553524556455207EC01C803524541
:10026000424D554E3E07F8018B04000042495403AD
:1002700004028A0200002042495423040E028A022A
:1002800000004E493E031A028A02000020455341F5
:10029000420424028A020A002054534554414C0669
:1002A00030028A0200004554415453053E028A023E
:1002B0000000205344454C3E2D064A0273020C01B7
:1002C00006A074011001444E493E2D0558027302E8
:1002D000A4010C0100A06C011001204C444E493EC9
:1002E0002D066A0273020C0101A07401100120485E
:1002F000444E493E2D06800273020C0100A0740199
:1003000010015044444E493E2D07940273020C01E3
:1003100004A0740110014174726F703E2D07A80291
:1003200073020C010080740110014274726F703E00
:100330002D07BC0273020C0101807401100143748B
:10034000726F703E2D07D00273020C01028074019F
:1003500010013101E402730292019A01220110019D
:100360002045544147454E06F2027302C801F2028D
:100370001C011001204C4C454304060373020C0180
:10038000020010012B4C4C4543051803730218035F
:100390001C011001534C4C45430528037302840192
:1003A0001001204552454804380373020C0106022F
:1003B00066011001544F4C4C41054603730246033D
:1003C0001C010C0106026C0110012C015803730280
:1003D00046036C01180358031001544F52036A037B
:1003E00073022A0156013A01560110015B817C0318
:1003F000730292014A026C0110015D018C037302C9
:10040000F2024A026C011001202945544145524331
:1004100028089A037302EC014603F80138035803D5
:100420003E0266016A0346033E026C01100120543D
:100430004E4154534E4F4308B0037302B0030C01B6
:1004400085026A036A03100120454C42414952412A
:100450005608D6037302B0030C018A026A030C012A
:100460000200580310013A01F0037302EC01460345
:10047000F801380358033E0266016A0346033E0250
:100480006C010C0173026A039A031001454D414E41
:100490004F4E3A070604730246030C0173026A03C7
:1004A0009A0310013B81320473028C030C0110018A
:1004B0006A03100110016A0310014C41524554496E
:1004C0004C87440473020C010C016A036A03100197
:1004D00020504F4F4E04600473021001CD91DD9106
:1004E000E991F9910994AF93BF93DE01F7CFBF91E2
:1004F000AF91F4CF0895FC0141935193CF0108953A
:10050000FC0152914291CF010895FE014191519118
:10051000F2DFE4CFAE01EFDFE1CF15DE02E90DBF80
:1005200000E00EBF96C101D0D9CFFC01529142919B
:10053000329641935193CF01089501D0CFCFFC0162
:10054000E250F040CF01089501D0C8CFFC01E45043
:10055000F04051914191FC0141935193CF01089595
:1005600001D0BCCFFC013291229152914291219352
:10057000319341935193CF01089501D0AFCFFC0146
:100580003291229131932193CF01089501D0A6CFCA
:10059000E9DF5F914F91AFDFE5DF08955F914F9104
:1005A0004F935F93A8DF9ACFABDF4F935F9396CFC4
:1005B000A7DF3F912F915F934F932F933F93089520
:1005C0005F914F9198DF8ACF3F912F914F915F912B
:1005D0002F933F9390DF089501D080CF9D01DC01E0
:1005E000FE91EE915E914E9141935193CD01D901CF
:1005F000089501D073CF84DFFA01419151917BDFDF
:10060000089501D06BCF4D915D9175DF089501D0B4
:1006100065CF76DF642F752F73DF460F571F6BDFB3
:10062000089501D05BCF6CDF642F752F69DF461B07
:10063000570B61DF089501D051CF62DF642F752F12
:100640005FDF4623572357DF089501D047CF58DF98
:10065000642F752F55DF462B572B4DDF089501D0A2
:100660003DCF4EDF642F752F4BDF4627572743DFE3
:10067000089501D033CF07D041E055273CDFC9DFD3
:10068000089501D02BCF3CDF4095509534DF08957D
:1006900001D024CFE6E0F2E0419151912CDF0895A2
:1006A00001D01CCFE6E0F2E04191519124DFB1DFAF
:1006B00027DFE6E0F2E041935193089501D00ECF99
:1006C0001FDFEA01E991F9910994089501D006CF5D
:1006D000089501D003CF089513DF642F752F10DF25
:1006E0004617570709F404C04427552704DFF6CE00
:1006F0004FEF5FEF00DFF2CE01D0F0CE01DFFA0165
:1007000040815527F8DE089501D0E8CE9D01DC0137
:10071000FE91EE915E914E914083CD01D9010895F5
:1007200001D0DCCEEDDE440F551FE5DE089501D08B
:10073000D5CEE6DE40955095DEDE089501D0CECED2
:10074000DFDE55954795D7DE0895609010027090D2
:100750001102809026029090270220911C02309175
:100760001D02260D371DF301E80DF91DE217F307F1
:1007700009F406C001910032C9F30030B9F3319792
:10078000E619F7094F01E6E2F2E0819291920895AD
:10079000B7DE2A01B5DE3A0103D0A401ACDE9ECE5D
:1007A000F3019924808086948394880C480C591C0A
:1007B00086940027AF93BF93D301F2012D913D9111
:1007C0002293329303950811F9CFBF91AF91089509
:1007D000209106023091070228513C4F290108D090
:1007E000409106025091070248515C4F84DE76CE5C
:1007F000ACDFAF93BF9360901002709011028090B5
:1008000026029090270220911C0230911D02260D95
:10081000371DF301E80DF91DD2011196E217F30718
:1008200009F409C00191003221F0003011F00D935C
:10083000F5CF11973197E619F7094F01A419B509BA
:10084000F201A193E6E2F2E081929192BF91AF9121
:1008500008957BDF809026029090270220911C0251
:1008600030911D02281539F4391529F41DCC0FEFEC
:10087000009306A0FCCF4090060250900702920120
:1008800028533F4F2901B4DFBF93AF9325D0AF91D9
:10089000BF9136DEFA01339700810078003041F4D1
:1008A000ECE4F2E00081003019F025DE4AE653E086
:1008B000A6E1B1E0EA01E991F9910994CACFD30127
:1008C000F2011C9113952D9132913F772317B9F4C2
:1008D0001A95103091F0F7CFE0914002F09141026B
:1008E0006090060270900702930128533F4F390130
:1008F000AF01729162912F01E2CFFDDD089560306A
:1009000019F4671709F403C0FB01F2CF089502E858
:10091000009306A0FCCF2091320230913302442490
:10092000552461E07727ECDDFA0181909924E80DE8
:10093000F91D029100530A300CF401C00750003039
:10094000CCF00217BCF46F937F93609F402D512D24
:10095000709F500D440E551E7F916F91629F402DE8
:10096000512D729F500DBA0193948910E2CFA201CC
:06097000C2DDB4CDCCCFC6
:00000001FF
